{
  "_format": "hh-sol-artifact-1",
  "contractName": "CredVerseRegistry",
  "sourceName": "contracts/CredVerseRegistry.sol",
  "abi": [
    {
      "inputs": [],
      "stateMutability": "nonpayable",
      "type": "constructor"
    },
    {
      "inputs": [],
      "name": "AccessControlBadConfirmation",
      "type": "error"
    },
    {
      "inputs": [
        {
          "internalType": "address",
          "name": "account",
          "type": "address"
        },
        {
          "internalType": "bytes32",
          "name": "neededRole",
          "type": "bytes32"
        }
      ],
      "name": "AccessControlUnauthorizedAccount",
      "type": "error"
    },
    {
      "anonymous": false,
      "inputs": [
        {
          "indexed": true,
          "internalType": "bytes32",
          "name": "rootHash",
          "type": "bytes32"
        },
        {
          "indexed": true,
          "internalType": "address",
          "name": "submitter",
          "type": "address"
        },
        {
          "indexed": false,
          "internalType": "uint256",
          "name": "timestamp",
          "type": "uint256"
        }
      ],
      "name": "AnchorSubmitted",
      "type": "event"
    },
    {
      "anonymous": false,
      "inputs": [
        {
          "indexed": true,
          "internalType": "bytes32",
          "name": "credentialHash",
          "type": "bytes32"
        },
        {
          "indexed": true,
          "internalType": "address",
          "name": "revoker",
          "type": "address"
        },
        {
          "indexed": false,
          "internalType": "uint256",
          "name": "timestamp",
          "type": "uint256"
        }
      ],
      "name": "CredentialRevoked",
      "type": "event"
    },
    {
      "anonymous": false,
      "inputs": [
        {
          "indexed": true,
          "internalType": "address",
          "name": "issuerAddress",
          "type": "address"
        },
        {
          "indexed": false,
          "internalType": "string",
          "name": "did",
          "type": "string"
        },
        {
          "indexed": false,
          "internalType": "string",
          "name": "domain",
          "type": "string"
        }
      ],
      "name": "IssuerRegistered",
      "type": "event"
    },
    {
      "anonymous": false,
      "inputs": [
        {
          "indexed": true,
          "internalType": "bytes32",
          "name": "role",
          "type": "bytes32"
        },
        {
          "indexed": true,
          "internalType": "bytes32",
          "name": "previousAdminRole",
          "type": "bytes32"
        },
        {
          "indexed": true,
          "internalType": "bytes32",
          "name": "newAdminRole",
          "type": "bytes32"
        }
      ],
      "name": "RoleAdminChanged",
      "type": "event"
    },
    {
      "anonymous": false,
      "inputs": [
        {
          "indexed": true,
          "internalType": "bytes32",
          "name": "role",
          "type": "bytes32"
        },
        {
          "indexed": true,
          "internalType": "address",
          "name": "account",
          "type": "address"
        },
        {
          "indexed": true,
          "internalType": "address",
          "name": "sender",
          "type": "address"
        }
      ],
      "name": "RoleGranted",
      "type": "event"
    },
    {
      "anonymous": false,
      "inputs": [
        {
          "indexed": true,
          "internalType": "bytes32",
          "name": "role",
          "type": "bytes32"
        },
        {
          "indexed": true,
          "internalType": "address",
          "name": "account",
          "type": "address"
        },
        {
          "indexed": true,
          "internalType": "address",
          "name": "sender",
          "type": "address"
        }
      ],
      "name": "RoleRevoked",
      "type": "event"
    },
    {
      "inputs": [],
      "name": "DEFAULT_ADMIN_ROLE",
      "outputs": [
        {
          "internalType": "bytes32",
          "name": "",
          "type": "bytes32"
        }
      ],
      "stateMutability": "view",
      "type": "function"
    },
    {
      "inputs": [],
      "name": "ISSUER_ROLE",
      "outputs": [
        {
          "internalType": "bytes32",
          "name": "",
          "type": "bytes32"
        }
      ],
      "stateMutability": "view",
      "type": "function"
    },
    {
      "inputs": [
        {
          "internalType": "bytes32",
          "name": "_rootHash",
          "type": "bytes32"
        }
      ],
      "name": "anchorCredential",
      "outputs": [],
      "stateMutability": "nonpayable",
      "type": "function"
    },
    {
      "inputs": [
        {
          "internalType": "bytes32",
          "name": "",
          "type": "bytes32"
        }
      ],
      "name": "anchors",
      "outputs": [
        {
          "internalType": "bytes32",
          "name": "rootHash",
          "type": "bytes32"
        },
        {
          "internalType": "uint256",
          "name": "timestamp",
          "type": "uint256"
        },
        {
          "internalType": "address",
          "name": "submitter",
          "type": "address"
        }
      ],
      "stateMutability": "view",
      "type": "function"
    },
    {
      "inputs": [
        {
          "internalType": "bytes32",
          "name": "role",
          "type": "bytes32"
        }
      ],
      "name": "getRoleAdmin",
      "outputs": [
        {
          "internalType": "bytes32",
          "name": "",
          "type": "bytes32"
        }
      ],
      "stateMutability": "view",
      "type": "function"
    },
    {
      "inputs": [
        {
          "internalType": "bytes32",
          "name": "role",
          "type": "bytes32"
        },
        {
          "internalType": "address",
          "name": "account",
          "type": "address"
        }
      ],
      "name": "grantRole",
      "outputs": [],
      "stateMutability": "nonpayable",
      "type": "function"
    },
    {
      "inputs": [
        {
          "internalType": "bytes32",
          "name": "role",
          "type": "bytes32"
        },
        {
          "internalType": "address",
          "name": "account",
          "type": "address"
        }
      ],
      "name": "hasRole",
      "outputs": [
        {
          "internalType": "bool",
          "name": "",
          "type": "bool"
        }
      ],
      "stateMutability": "view",
      "type": "function"
    },
    {
      "inputs": [
        {
          "internalType": "bytes32",
          "name": "_credentialHash",
          "type": "bytes32"
        }
      ],
      "name": "isRevoked",
      "outputs": [
        {
          "internalType": "bool",
          "name": "",
          "type": "bool"
        }
      ],
      "stateMutability": "view",
      "type": "function"
    },
    {
      "inputs": [
        {
          "internalType": "address",
          "name": "",
          "type": "address"
        }
      ],
      "name": "issuers",
      "outputs": [
        {
          "internalType": "bool",
          "name": "isRegistered",
          "type": "bool"
        },
        {
          "internalType": "string",
          "name": "did",
          "type": "string"
        },
        {
          "internalType": "string",
          "name": "domain",
          "type": "string"
        },
        {
          "internalType": "bool",
          "name": "isRevoked",
          "type": "bool"
        }
      ],
      "stateMutability": "view",
      "type": "function"
    },
    {
      "inputs": [
        {
          "internalType": "address",
          "name": "_issuerAddress",
          "type": "address"
        },
        {
          "internalType": "string",
          "name": "_did",
          "type": "string"
        },
        {
          "internalType": "string",
          "name": "_domain",
          "type": "string"
        }
      ],
      "name": "registerIssuer",
      "outputs": [],
      "stateMutability": "nonpayable",
      "type": "function"
    },
    {
      "inputs": [
        {
          "internalType": "bytes32",
          "name": "role",
          "type": "bytes32"
        },
        {
          "internalType": "address",
          "name": "callerConfirmation",
          "type": "address"
        }
      ],
      "name": "renounceRole",
      "outputs": [],
      "stateMutability": "nonpayable",
      "type": "function"
    },
    {
      "inputs": [
        {
          "internalType": "bytes32",
          "name": "_credentialHash",
          "type": "bytes32"
        }
      ],
      "name": "revokeCredential",
      "outputs": [],
      "stateMutability": "nonpayable",
      "type": "function"
    },
    {
      "inputs": [
        {
          "internalType": "bytes32",
          "name": "role",
          "type": "bytes32"
        },
        {
          "internalType": "address",
          "name": "account",
          "type": "address"
        }
      ],
      "name": "revokeRole",
      "outputs": [],
      "stateMutability": "nonpayable",
      "type": "function"
    },
    {
      "inputs": [
        {
          "internalType": "bytes32",
          "name": "",
          "type": "bytes32"
        }
      ],
      "name": "revokedCredentials",
      "outputs": [
        {
          "internalType": "bool",
          "name": "",
          "type": "bool"
        }
      ],
      "stateMutability": "view",
      "type": "function"
    },
    {
      "inputs": [
        {
          "internalType": "bytes4",
          "name": "interfaceId",
          "type": "bytes4"
        }
      ],
      "name": "supportsInterface",
      "outputs": [
        {
          "internalType": "bool",
          "name": "",
          "type": "bool"
        }
      ],
      "stateMutability": "view",
      "type": "function"
    }
  ],
  "bytecode": "0x608060405234801561001057600080fd5b5061001c600033610022565b506100ce565b6000828152602081815260408083206001600160a01b038516845290915281205460ff166100c4576000838152602081815260408083206001600160a01b03861684529091529020805460ff1916600117905561007c3390565b6001600160a01b0316826001600160a01b0316847f2f8788117e7eff1d82e926ec794901d17c78024a50270940304540a733656f0d60405160405180910390a45060016100c8565b5060005b92915050565b610c4f806100dd6000396000f3fe608060405234801561001057600080fd5b50600436106100f55760003560e01c80634294857f11610097578063a217fddf11610066578063a217fddf14610232578063b01b6d531461023a578063ca6eec7814610295578063d547741f146102a857600080fd5b80634294857f146101d457806363e41021146101f757806382aefa241461020a57806391d148541461021f57600080fd5b8063249b92a0116100d3578063249b92a0146101685780632f2ff15d1461018b57806336568abe1461019e57806338a7543e146101b157600080fd5b806301ffc9a7146100fa57806312d4919714610122578063248a9ca314610137575b600080fd5b61010d610108366004610838565b6102bb565b60405190151581526020015b60405180910390f35b610135610130366004610869565b6102f2565b005b61015a610145366004610869565b60009081526020819052604090206001015490565b604051908152602001610119565b61010d610176366004610869565b60036020526000908152604090205460ff1681565b61013561019936600461089e565b61039c565b6101356101ac36600461089e565b6103c7565b6101c46101bf3660046108ca565b6103ff565b604051610119949392919061092b565b61010d6101e2366004610869565b60009081526003602052604090205460ff1690565b610135610205366004610a0f565b610540565b61015a600080516020610bfa83398151915281565b61010d61022d36600461089e565b610638565b61015a600081565b610271610248366004610869565b60026020819052600091825260409091208054600182015491909201546001600160a01b031683565b6040805193845260208401929092526001600160a01b031690820152606001610119565b6101356102a3366004610869565b610661565b6101356102b636600461089e565b6106c8565b60006001600160e01b03198216637965db0b60e01b14806102ec57506301ffc9a760e01b6001600160e01b03198316145b92915050565b600080516020610bfa83398151915261030a816106ed565b604080516060810182528381524260208083018281523384860181815260008981526002808652908890209651875592516001870155519490910180546001600160a01b0319166001600160a01b03909516949094179093559251908152909184917f0917007f903269777924403951e6bd0d04ed4362f52d89beaed2febedc53848091015b60405180910390a35050565b6000828152602081905260409020600101546103b7816106ed565b6103c183836106fa565b50505050565b6001600160a01b03811633146103f05760405163334bd91960e11b815260040160405180910390fd5b6103fa828261078c565b505050565b60016020819052600091825260409091208054918101805460ff9093169261042690610a83565b80601f016020809104026020016040519081016040528092919081815260200182805461045290610a83565b801561049f5780601f106104745761010080835404028352916020019161049f565b820191906000526020600020905b81548152906001019060200180831161048257829003601f168201915b5050505050908060020180546104b490610a83565b80601f01602080910402602001604051908101604052809291908181526020018280546104e090610a83565b801561052d5780601f106105025761010080835404028352916020019161052d565b820191906000526020600020905b81548152906001019060200180831161051057829003601f168201915b5050506003909301549192505060ff1684565b600061054b816106ed565b60408051608081018252600180825260208083018781528385018790526000606085018190526001600160a01b038a168152918390529390208251815460ff19169015151781559251919291908201906105a59082610b0b565b50604082015160028201906105ba9082610b0b565b50606091909101516003909101805460ff19169115159190911790556105ee600080516020610bfa833981519152856106fa565b50836001600160a01b03167f2b062b4e0857383c98aacd16bcd2714030d81ad54eb91dd18856344424386651848460405161062a929190610bcb565b60405180910390a250505050565b6000918252602082815260408084206001600160a01b0393909316845291905290205460ff1690565b600080516020610bfa833981519152610679816106ed565b60008281526003602052604090819020805460ff1916600117905551339083907f80d4746828447d65eceb938c7f9d85fbeb232fe7819d5209ed452b3940f8904b906103909042815260200190565b6000828152602081905260409020600101546106e3816106ed565b6103c1838361078c565b6106f781336107f7565b50565b60006107068383610638565b610784576000838152602081815260408083206001600160a01b03861684529091529020805460ff1916600117905561073c3390565b6001600160a01b0316826001600160a01b0316847f2f8788117e7eff1d82e926ec794901d17c78024a50270940304540a733656f0d60405160405180910390a45060016102ec565b5060006102ec565b60006107988383610638565b15610784576000838152602081815260408083206001600160a01b0386168085529252808320805460ff1916905551339286917ff6391f5c32d9c69d2a47ea670b442974b53935d1edc7fd64eb21e047a839171b9190a45060016102ec565b6108018282610638565b6108345760405163e2517d3f60e01b81526001600160a01b03821660048201526024810183905260440160405180910390fd5b5050565b60006020828403121561084a57600080fd5b81356001600160e01b03198116811461086257600080fd5b9392505050565b60006020828403121561087b57600080fd5b5035919050565b80356001600160a01b038116811461089957600080fd5b919050565b600080604083850312156108b157600080fd5b823591506108c160208401610882565b90509250929050565b6000602082840312156108dc57600080fd5b61086282610882565b6000815180845260005b8181101561090b576020818501810151868301820152016108ef565b506000602082860101526020601f19601f83011685010191505092915050565b841515815260806020820152600061094660808301866108e5565b828103604084015261095881866108e5565b915050821515606083015295945050505050565b634e487b7160e01b600052604160045260246000fd5b600082601f83011261099357600080fd5b813567ffffffffffffffff808211156109ae576109ae61096c565b604051601f8301601f19908116603f011681019082821181831017156109d6576109d661096c565b816040528381528660208588010111156109ef57600080fd5b836020870160208301376000602085830101528094505050505092915050565b600080600060608486031215610a2457600080fd5b610a2d84610882565b9250602084013567ffffffffffffffff80821115610a4a57600080fd5b610a5687838801610982565b93506040860135915080821115610a6c57600080fd5b50610a7986828701610982565b9150509250925092565b600181811c90821680610a9757607f821691505b602082108103610ab757634e487b7160e01b600052602260045260246000fd5b50919050565b601f8211156103fa57600081815260208120601f850160051c81016020861015610ae45750805b601f850160051c820191505b81811015610b0357828155600101610af0565b505050505050565b815167ffffffffffffffff811115610b2557610b2561096c565b610b3981610b338454610a83565b84610abd565b602080601f831160018114610b6e5760008415610b565750858301515b600019600386901b1c1916600185901b178555610b03565b600085815260208120601f198616915b82811015610b9d57888601518255948401946001909101908401610b7e565b5085821015610bbb5787850151600019600388901b60f8161c191681555b5050505050600190811b01905550565b604081526000610bde60408301856108e5565b8281036020840152610bf081856108e5565b9594505050505056fe114e74f6ea3bd819998f78687bfcb11b140da08e9b7d222fa9c1f1ba1f2aa122a264697066735822122045bcdf6718ffbf5880c76a0830fb1120174e297ebe4172d7842c5eda497f8d0864736f6c63430008140033",
  "linkReferences": {},
  "deployedLinkReferences": {}
}